{
  "contractName": "SrvRole",
  "abi": [
    {
      "inputs": [],
      "payable": false,
      "stateMutability": "nonpayable",
      "type": "constructor"
    },
    {
      "anonymous": false,
      "inputs": [
        {
          "indexed": true,
          "name": "account",
          "type": "address"
        }
      ],
      "name": "SrvAdded",
      "type": "event"
    },
    {
      "anonymous": false,
      "inputs": [
        {
          "indexed": true,
          "name": "account",
          "type": "address"
        }
      ],
      "name": "SrvRemoved",
      "type": "event"
    },
    {
      "constant": true,
      "inputs": [
        {
          "name": "account",
          "type": "address"
        }
      ],
      "name": "isSrv",
      "outputs": [
        {
          "name": "",
          "type": "bool"
        }
      ],
      "payable": false,
      "stateMutability": "view",
      "type": "function"
    },
    {
      "constant": false,
      "inputs": [
        {
          "name": "account",
          "type": "address"
        }
      ],
      "name": "addSrv",
      "outputs": [],
      "payable": false,
      "stateMutability": "nonpayable",
      "type": "function"
    },
    {
      "constant": false,
      "inputs": [],
      "name": "renounceSrv",
      "outputs": [],
      "payable": false,
      "stateMutability": "nonpayable",
      "type": "function"
    }
  ],
  "bytecode": "0x608060405234801561001057600080fd5b506100293361002e640100000000026401000000009004565b6101e8565b61004f81600061009564010000000002610350179091906401000000009004565b8073ffffffffffffffffffffffffffffffffffffffff167f85cd04cc1cb180ff60c3be871c7885a29ee0e47376ee1a36a726b564a7bd7ee960405160405180910390a250565b600073ffffffffffffffffffffffffffffffffffffffff168173ffffffffffffffffffffffffffffffffffffffff16141515156100d157600080fd5b6100ea8282610154640100000000026401000000009004565b1515156100f657600080fd5b60018260000160008373ffffffffffffffffffffffffffffffffffffffff1673ffffffffffffffffffffffffffffffffffffffff16815260200190815260200160002060006101000a81548160ff0219169083151502179055505050565b60008073ffffffffffffffffffffffffffffffffffffffff168273ffffffffffffffffffffffffffffffffffffffff161415151561019157600080fd5b8260000160008373ffffffffffffffffffffffffffffffffffffffff1673ffffffffffffffffffffffffffffffffffffffff16815260200190815260200160002060009054906101000a900460ff16905092915050565b61042c806101f76000396000f300608060405260043610610057576000357c0100000000000000000000000000000000000000000000000000000000900463ffffffff16806358af409b1461005c57806362c69ea1146100b7578063cde5dae4146100ce575b600080fd5b34801561006857600080fd5b5061009d600480360381019080803573ffffffffffffffffffffffffffffffffffffffff169060200190929190505050610111565b604051808215151515815260200191505060405180910390f35b3480156100c357600080fd5b506100cc61012e565b005b3480156100da57600080fd5b5061010f600480360381019080803573ffffffffffffffffffffffffffffffffffffffff169060200190929190505050610139565b005b600061012782600061015990919063ffffffff16565b9050919050565b610137336101ed565b565b61014233610111565b151561014d57600080fd5b61015681610247565b50565b60008073ffffffffffffffffffffffffffffffffffffffff168273ffffffffffffffffffffffffffffffffffffffff161415151561019657600080fd5b8260000160008373ffffffffffffffffffffffffffffffffffffffff1673ffffffffffffffffffffffffffffffffffffffff16815260200190815260200160002060009054906101000a900460ff16905092915050565b6102018160006102a190919063ffffffff16565b8073ffffffffffffffffffffffffffffffffffffffff167f4fbf9729a96d81da982c6f8122972be39dbba730303b8f60be36d6962f02a81e60405160405180910390a250565b61025b81600061035090919063ffffffff16565b8073ffffffffffffffffffffffffffffffffffffffff167f85cd04cc1cb180ff60c3be871c7885a29ee0e47376ee1a36a726b564a7bd7ee960405160405180910390a250565b600073ffffffffffffffffffffffffffffffffffffffff168173ffffffffffffffffffffffffffffffffffffffff16141515156102dd57600080fd5b6102e78282610159565b15156102f257600080fd5b60008260000160008373ffffffffffffffffffffffffffffffffffffffff1673ffffffffffffffffffffffffffffffffffffffff16815260200190815260200160002060006101000a81548160ff0219169083151502179055505050565b600073ffffffffffffffffffffffffffffffffffffffff168173ffffffffffffffffffffffffffffffffffffffff161415151561038c57600080fd5b6103968282610159565b1515156103a257600080fd5b60018260000160008373ffffffffffffffffffffffffffffffffffffffff1673ffffffffffffffffffffffffffffffffffffffff16815260200190815260200160002060006101000a81548160ff02191690831515021790555050505600a165627a7a723058207602c77f04053461c4333a5a020c31e47c8a7b617852b09d546902cb3f7bcc000029",
  "source": "pragma solidity ^0.4.24;\n\n// Import the library 'Roles'\nimport \"./Roles.sol\";\n\n// Define a contract 'SrvRole' to manage this role - add, remove, check\ncontract SrvRole {\n  using Roles for Roles.Role;\n\n  // Define 2 events, one for Adding, and other for Removing\n  event SrvAdded(address indexed account);\n  event SrvRemoved(address indexed account);\n\n  // Define a struct 'srv' by inheriting from 'Roles' library, struct Role\n  Roles.Role private srv;\n\n  // In the constructor make the address that deploys this contract the 1st service shop\n  constructor() public {\n    _addSrv(msg.sender);\n  }\n\n  // Define a modifier that checks to see if msg.sender has the appropriate role\n  modifier onlySrv() {\n    require(isSrv(msg.sender));\n    _;\n  }\n\n  // Define a function 'isSrv' to check this role\n  function isSrv(address account) public view returns (bool) {\n    return srv.has(account);\n  }\n\n  // Define a function 'addSrv' that adds this role\n  function addSrv(address account) public onlySrv {\n    _addSrv(account);\n  }\n\n  // Define a function 'renounceSrv' to renounce this role\n  function renounceSrv() public {\n    _removeSrv(msg.sender);\n  }\n\n  // Define an internal function '_addSrv' to add this role, called by 'addSrv'\n  function _addSrv(address account) internal {\n    srv.add(account);\n    emit SrvAdded(account);\n  }\n\n  // Define an internal function '_removeSrv' to remove this role, called by 'removeSrv'\n  function _removeSrv(address account) internal {\n    srv.remove(account);\n    emit SrvRemoved(account);\n  }\n}",
  "sourcePath": "C:\\Users\\Mike\\Documents\\GitHub\\nd1309-work-code\\Project-6b-MDP\\project-6\\contracts\\equipmentaccesscontrol\\SrvRole.sol",
  "compiler": {
    "name": "solc",
    "version": "0.4.24+commit.e67f0147.Emscripten.clang"
  },
  "schemaVersion": "2.0.1",
  "updatedAt": "2019-05-15T11:47:35.118Z"
}