{
  "contractName": "SupplyChain",
  "abi": [
    {
      "inputs": [],
      "payable": true,
      "stateMutability": "payable",
      "type": "constructor"
    },
    {
      "anonymous": false,
      "inputs": [
        {
          "indexed": false,
          "name": "upc",
          "type": "uint256"
        }
      ],
      "name": "Manufactured",
      "type": "event"
    },
    {
      "anonymous": false,
      "inputs": [
        {
          "indexed": false,
          "name": "upc",
          "type": "uint256"
        }
      ],
      "name": "ForSale",
      "type": "event"
    },
    {
      "anonymous": false,
      "inputs": [
        {
          "indexed": false,
          "name": "upc",
          "type": "uint256"
        }
      ],
      "name": "Sold",
      "type": "event"
    },
    {
      "anonymous": false,
      "inputs": [
        {
          "indexed": false,
          "name": "upc",
          "type": "uint256"
        }
      ],
      "name": "ShippedToConsumer",
      "type": "event"
    },
    {
      "anonymous": false,
      "inputs": [
        {
          "indexed": false,
          "name": "upc",
          "type": "uint256"
        }
      ],
      "name": "InOperation",
      "type": "event"
    },
    {
      "anonymous": false,
      "inputs": [
        {
          "indexed": false,
          "name": "upc",
          "type": "uint256"
        }
      ],
      "name": "CallOpened",
      "type": "event"
    },
    {
      "anonymous": false,
      "inputs": [
        {
          "indexed": false,
          "name": "upc",
          "type": "uint256"
        }
      ],
      "name": "ShippedToSrv",
      "type": "event"
    },
    {
      "anonymous": false,
      "inputs": [
        {
          "indexed": false,
          "name": "upc",
          "type": "uint256"
        }
      ],
      "name": "ReceivedBySrv",
      "type": "event"
    },
    {
      "anonymous": false,
      "inputs": [
        {
          "indexed": false,
          "name": "upc",
          "type": "uint256"
        }
      ],
      "name": "UnderRepair",
      "type": "event"
    },
    {
      "anonymous": false,
      "inputs": [
        {
          "indexed": false,
          "name": "upc",
          "type": "uint256"
        }
      ],
      "name": "Repaired",
      "type": "event"
    },
    {
      "anonymous": false,
      "inputs": [
        {
          "indexed": false,
          "name": "upc",
          "type": "uint256"
        }
      ],
      "name": "EOL",
      "type": "event"
    },
    {
      "constant": false,
      "inputs": [],
      "name": "kill",
      "outputs": [],
      "payable": false,
      "stateMutability": "nonpayable",
      "type": "function"
    },
    {
      "constant": false,
      "inputs": [
        {
          "name": "_upc",
          "type": "uint256"
        },
        {
          "name": "_originMfgID",
          "type": "address"
        },
        {
          "name": "_originMfgName",
          "type": "string"
        },
        {
          "name": "_originMfgInformation",
          "type": "string"
        },
        {
          "name": "_originMfgLatitude",
          "type": "string"
        },
        {
          "name": "_originMfgLongitude",
          "type": "string"
        },
        {
          "name": "_productNotes",
          "type": "string"
        }
      ],
      "name": "manufactureItem",
      "outputs": [],
      "payable": false,
      "stateMutability": "nonpayable",
      "type": "function"
    },
    {
      "constant": false,
      "inputs": [
        {
          "name": "_upc",
          "type": "uint256"
        },
        {
          "name": "_price",
          "type": "uint256"
        }
      ],
      "name": "sellItem",
      "outputs": [],
      "payable": false,
      "stateMutability": "nonpayable",
      "type": "function"
    },
    {
      "constant": false,
      "inputs": [
        {
          "name": "_upc",
          "type": "uint256"
        }
      ],
      "name": "buyItem",
      "outputs": [],
      "payable": true,
      "stateMutability": "payable",
      "type": "function"
    },
    {
      "constant": false,
      "inputs": [
        {
          "name": "_upc",
          "type": "uint256"
        },
        {
          "name": "_shipTo",
          "type": "address"
        }
      ],
      "name": "shipItem",
      "outputs": [],
      "payable": false,
      "stateMutability": "nonpayable",
      "type": "function"
    },
    {
      "constant": false,
      "inputs": [
        {
          "name": "_upc",
          "type": "uint256"
        }
      ],
      "name": "receiveItem",
      "outputs": [],
      "payable": false,
      "stateMutability": "nonpayable",
      "type": "function"
    },
    {
      "constant": false,
      "inputs": [
        {
          "name": "_upc",
          "type": "uint256"
        },
        {
          "name": "_srvID",
          "type": "address"
        },
        {
          "name": "_srvUsage",
          "type": "uint256"
        },
        {
          "name": "_probNotes",
          "type": "string"
        }
      ],
      "name": "requestSrv",
      "outputs": [],
      "payable": false,
      "stateMutability": "nonpayable",
      "type": "function"
    },
    {
      "constant": false,
      "inputs": [
        {
          "name": "_upc",
          "type": "uint256"
        }
      ],
      "name": "shipItemSrv",
      "outputs": [],
      "payable": false,
      "stateMutability": "nonpayable",
      "type": "function"
    },
    {
      "constant": false,
      "inputs": [
        {
          "name": "_upc",
          "type": "uint256"
        }
      ],
      "name": "receiveItemSrv",
      "outputs": [],
      "payable": false,
      "stateMutability": "nonpayable",
      "type": "function"
    },
    {
      "constant": false,
      "inputs": [
        {
          "name": "_upc",
          "type": "uint256"
        }
      ],
      "name": "repairItem",
      "outputs": [],
      "payable": false,
      "stateMutability": "nonpayable",
      "type": "function"
    },
    {
      "constant": false,
      "inputs": [
        {
          "name": "_upc",
          "type": "uint256"
        },
        {
          "name": "_EOL",
          "type": "uint256"
        },
        {
          "name": "_srvNotes",
          "type": "string"
        }
      ],
      "name": "repairComplete",
      "outputs": [],
      "payable": false,
      "stateMutability": "nonpayable",
      "type": "function"
    },
    {
      "constant": false,
      "inputs": [
        {
          "name": "_upc",
          "type": "uint256"
        },
        {
          "name": "_shipTo",
          "type": "address"
        }
      ],
      "name": "shipFromSrv",
      "outputs": [],
      "payable": false,
      "stateMutability": "nonpayable",
      "type": "function"
    },
    {
      "constant": true,
      "inputs": [
        {
          "name": "_upc",
          "type": "uint256"
        }
      ],
      "name": "fetchItemBufferOne",
      "outputs": [
        {
          "name": "itemSKU",
          "type": "uint256"
        },
        {
          "name": "itemUPC",
          "type": "uint256"
        },
        {
          "name": "ownerID",
          "type": "address"
        },
        {
          "name": "originMfgID",
          "type": "address"
        },
        {
          "name": "originMfgName",
          "type": "string"
        },
        {
          "name": "originMfgInformation",
          "type": "string"
        },
        {
          "name": "originMfgLatitude",
          "type": "string"
        },
        {
          "name": "originMfgLongitude",
          "type": "string"
        }
      ],
      "payable": false,
      "stateMutability": "view",
      "type": "function"
    },
    {
      "constant": true,
      "inputs": [
        {
          "name": "_upc",
          "type": "uint256"
        }
      ],
      "name": "fetchItemBufferTwo",
      "outputs": [
        {
          "name": "itemSKU",
          "type": "uint256"
        },
        {
          "name": "itemUPC",
          "type": "uint256"
        },
        {
          "name": "productID",
          "type": "uint256"
        },
        {
          "name": "productNotes",
          "type": "string"
        },
        {
          "name": "productPrice",
          "type": "uint256"
        },
        {
          "name": "itemState",
          "type": "uint8"
        },
        {
          "name": "originMfgID",
          "type": "address"
        },
        {
          "name": "sellerID",
          "type": "address"
        },
        {
          "name": "consumerID",
          "type": "address"
        },
        {
          "name": "shipToID",
          "type": "address"
        }
      ],
      "payable": false,
      "stateMutability": "view",
      "type": "function"
    },
    {
      "constant": true,
      "inputs": [
        {
          "name": "_upc",
          "type": "uint256"
        }
      ],
      "name": "fetchItemBufferThree",
      "outputs": [
        {
          "name": "itemSKU",
          "type": "uint256"
        },
        {
          "name": "itemUPC",
          "type": "uint256"
        },
        {
          "name": "productID",
          "type": "uint256"
        },
        {
          "name": "srvID",
          "type": "address"
        },
        {
          "name": "srvUsage",
          "type": "uint256"
        },
        {
          "name": "probNotes",
          "type": "string"
        },
        {
          "name": "srvNotes",
          "type": "string"
        }
      ],
      "payable": false,
      "stateMutability": "view",
      "type": "function"
    }
  ],
  "bytecode": "0x6080604052336000806101000a81548173ffffffffffffffffffffffffffffffffffffffff021916908373ffffffffffffffffffffffffffffffffffffffff160217905550600160028190555060018081905550612837806100626000396000f3006080604052600436106100db576000357c0100000000000000000000000000000000000000000000000000000000900463ffffffff1680632d416732146100e05780632d9235611461015d57806341c0e1b5146101945780634a634bcc146101ab57806361188c03146101f857806366225ff914610225578063716b00ad146103c857806377c45913146104655780638287662c146106c3578063a1cafb26146106f0578063a26be9991461089b578063acd5fba6146108c8578063bb4f288d14610a29578063e7fb74c714610a76578063ee2f49ef14610a96575b600080fd5b3480156100ec57600080fd5b5061015b6004803603810190808035906020019092919080359060200190929190803590602001908201803590602001908080601f0160208091040260200160405190810160405280939291908181526020018383808284378201915050505050509192919290505050610ac3565b005b34801561016957600080fd5b506101926004803603810190808035906020019092919080359060200190929190505050610c43565b005b3480156101a057600080fd5b506101a9610de2565b005b3480156101b757600080fd5b506101f660048036038101908080359060200190929190803573ffffffffffffffffffffffffffffffffffffffff169060200190929190505050610e73565b005b34801561020457600080fd5b5061022360048036038101908080359060200190929190505050610ff6565b005b34801561023157600080fd5b5061025060048036038101908080359060200190929190505050611198565b604051808b81526020018a81526020018981526020018060200188815260200187600a81111561027c57fe5b60ff1681526020018673ffffffffffffffffffffffffffffffffffffffff1673ffffffffffffffffffffffffffffffffffffffff1681526020018573ffffffffffffffffffffffffffffffffffffffff1673ffffffffffffffffffffffffffffffffffffffff1681526020018473ffffffffffffffffffffffffffffffffffffffff1673ffffffffffffffffffffffffffffffffffffffff1681526020018373ffffffffffffffffffffffffffffffffffffffff1673ffffffffffffffffffffffffffffffffffffffff168152602001828103825289818151815260200191508051906020019080838360005b83811015610384578082015181840152602081019050610369565b50505050905090810190601f1680156103b15780820380516001836020036101000a031916815260200191505b509b50505050505050505050505060405180910390f35b3480156103d457600080fd5b5061046360048036038101908080359060200190929190803573ffffffffffffffffffffffffffffffffffffffff16906020019092919080359060200190929190803590602001908201803590602001908080601f01602080910402602001604051908101604052809392919081815260200183838082843782019150505050505091929192905050506113f2565b005b34801561047157600080fd5b50610490600480360381019080803590602001909291905050506115a7565b604051808981526020018881526020018773ffffffffffffffffffffffffffffffffffffffff1673ffffffffffffffffffffffffffffffffffffffff1681526020018673ffffffffffffffffffffffffffffffffffffffff1673ffffffffffffffffffffffffffffffffffffffff16815260200180602001806020018060200180602001858103855289818151815260200191508051906020019080838360005b8381101561054c578082015181840152602081019050610531565b50505050905090810190601f1680156105795780820380516001836020036101000a031916815260200191505b50858103845288818151815260200191508051906020019080838360005b838110156105b2578082015181840152602081019050610597565b50505050905090810190601f1680156105df5780820380516001836020036101000a031916815260200191505b50858103835287818151815260200191508051906020019080838360005b838110156106185780820151818401526020810190506105fd565b50505050905090810190601f1680156106455780820380516001836020036101000a031916815260200191505b50858103825286818151815260200191508051906020019080838360005b8381101561067e578082015181840152602081019050610663565b50505050905090810190601f1680156106ab5780820380516001836020036101000a031916815260200191505b509c5050505050505050505050505060405180910390f35b3480156106cf57600080fd5b506106ee6004803603810190808035906020019092919050505061193e565b005b3480156106fc57600080fd5b5061089960048036038101908080359060200190929190803573ffffffffffffffffffffffffffffffffffffffff169060200190929190803590602001908201803590602001908080601f0160208091040260200160405190810160405280939291908181526020018383808284378201915050505050509192919290803590602001908201803590602001908080601f0160208091040260200160405190810160405280939291908181526020018383808284378201915050505050509192919290803590602001908201803590602001908080601f0160208091040260200160405190810160405280939291908181526020018383808284378201915050505050509192919290803590602001908201803590602001908080601f0160208091040260200160405190810160405280939291908181526020018383808284378201915050505050509192919290803590602001908201803590602001908080601f01602080910402602001604051908101604052809392919081815260200183838082843782019150505050505091929192905050506119fa565b005b3480156108a757600080fd5b506108c660048036038101908080359060200190929190505050611c98565b005b3480156108d457600080fd5b506108f360048036038101908080359060200190929190505050611f06565b604051808881526020018781526020018681526020018573ffffffffffffffffffffffffffffffffffffffff1673ffffffffffffffffffffffffffffffffffffffff1681526020018481526020018060200180602001838103835285818151815260200191508051906020019080838360005b83811015610981578082015181840152602081019050610966565b50505050905090810190601f1680156109ae5780820380516001836020036101000a031916815260200191505b50838103825284818151815260200191508051906020019080838360005b838110156109e75780820151818401526020810190506109cc565b50505050905090810190601f168015610a145780820380516001836020036101000a031916815260200191505b50995050505050505050505060405180910390f35b348015610a3557600080fd5b50610a7460048036038101908080359060200190929190803573ffffffffffffffffffffffffffffffffffffffff169060200190929190505050612130565b005b610a94600480360381019080803590602001909291905050506122e0565b005b348015610aa257600080fd5b50610ac16004803603810190808035906020019092919050505061254d565b005b826008600a811115610ad157fe5b60036000838152602001908152602001600020600b0160009054906101000a900460ff16600a811115610b0057fe5b141515610b0c57600080fd5b81600360008681526020019081526020016000206010019080519060200190610b36929190612766565b506000831415610b7957600960036000868152602001908152602001600020600b0160006101000a81548160ff0219169083600a811115610b7357fe5b02179055505b6001831415610bbb57600a60036000868152602001908152602001600020600b0160006101000a81548160ff0219169083600a811115610bb557fe5b02179055505b6000831415610bfc577f867455f50213547ece031dd4e809a840833e28b077e95c01eb6180d2214baf91846040518082815260200191505060405180910390a15b6001831415610c3d577fb4591b96db1a602e92f37818c2a3b3350d11c95cfb132f2440e1a6ef9de40fb9846040518082815260200191505060405180910390a15b50505050565b816000600a811115610c5157fe5b60036000838152602001908152602001600020600b0160009054906101000a900460ff16600a811115610c8057fe5b141515610c8c57600080fd5b6003600084815260200190815260200160002060030160009054906101000a900473ffffffffffffffffffffffffffffffffffffffff168073ffffffffffffffffffffffffffffffffffffffff163373ffffffffffffffffffffffffffffffffffffffff16141515610cfd57600080fd5b8260036000868152602001908152602001600020600a01819055503360036000868152602001908152602001600020600b0160016101000a81548173ffffffffffffffffffffffffffffffffffffffff021916908373ffffffffffffffffffffffffffffffffffffffff160217905550600160036000868152602001908152602001600020600b0160006101000a81548160ff0219169083600a811115610da057fe5b02179055507fa96ae0fc3224ebd79eebfe54bd130cc9cb94416cddd1f2386115e00b72532468846040518082815260200191505060405180910390a150505050565b6000809054906101000a900473ffffffffffffffffffffffffffffffffffffffff1673ffffffffffffffffffffffffffffffffffffffff163373ffffffffffffffffffffffffffffffffffffffff161415610e71576000809054906101000a900473ffffffffffffffffffffffffffffffffffffffff1673ffffffffffffffffffffffffffffffffffffffff16ff5b565b816009600a811115610e8157fe5b60036000838152602001908152602001600020600b0160009054906101000a900460ff16600a811115610eb057fe5b141515610ebc57600080fd5b60036000848152602001908152602001600020600d0160009054906101000a900473ffffffffffffffffffffffffffffffffffffffff168073ffffffffffffffffffffffffffffffffffffffff163373ffffffffffffffffffffffffffffffffffffffff16141515610f2d57600080fd5b6003806000868152602001908152602001600020600b0160006101000a81548160ff0219169083600a811115610f5f57fe5b0217905550826003600086815260200190815260200160002060110160006101000a81548173ffffffffffffffffffffffffffffffffffffffff021916908373ffffffffffffffffffffffffffffffffffffffff1602179055507f3a0b536b05e501b9300785414f4a59db7853e633dddd6d95660f2606868a4503846040518082815260200191505060405180910390a150505050565b806005600a81111561100457fe5b60036000838152602001908152602001600020600b0160009054906101000a900460ff16600a81111561103357fe5b14151561103f57600080fd5b6000809054906101000a900473ffffffffffffffffffffffffffffffffffffffff1673ffffffffffffffffffffffffffffffffffffffff163373ffffffffffffffffffffffffffffffffffffffff1614151561109a57600080fd5b600660036000848152602001908152602001600020600b0160006101000a81548160ff0219169083600a8111156110cd57fe5b021790555060036000838152602001908152602001600020600d0160009054906101000a900473ffffffffffffffffffffffffffffffffffffffff166003600084815260200190815260200160002060110160006101000a81548173ffffffffffffffffffffffffffffffffffffffff021916908373ffffffffffffffffffffffffffffffffffffffff1602179055507f8bd316f0c63e4e6daa6c41e7a1a1c6945e087eec7fabd1b2586be95b0a6db858826040518082815260200191505060405180910390a15050565b60008060006060600080600080600080600360008c8152602001908152602001600020600001549950600360008c8152602001908152602001600020600101549850600360008c8152602001908152602001600020600801549750600360008c81526020019081526020016000206009018054600181600116156101000203166002900480601f01602080910402602001604051908101604052809291908181526020018280546001816001161561010002031660029004801561129d5780601f106112725761010080835404028352916020019161129d565b820191906000526020600020905b81548152906001019060200180831161128057829003601f168201915b50505050509650600360008c8152602001908152602001600020600a01549550600360008c8152602001908152602001600020600b0160009054906101000a900460ff169450600360008c815260200190815260200160002060030160009054906101000a900473ffffffffffffffffffffffffffffffffffffffff169350600360008c8152602001908152602001600020600b0160019054906101000a900473ffffffffffffffffffffffffffffffffffffffff169250600360008c8152602001908152602001600020600c0160009054906101000a900473ffffffffffffffffffffffffffffffffffffffff169150600360008c815260200190815260200160002060110160009054906101000a900473ffffffffffffffffffffffffffffffffffffffff1690508989898989898989898999509950995099509950995099509950995099509193959799509193959799565b6000809054906101000a900473ffffffffffffffffffffffffffffffffffffffff1673ffffffffffffffffffffffffffffffffffffffff163373ffffffffffffffffffffffffffffffffffffffff1614151561144d57600080fd5b836004600a81111561145b57fe5b60036000838152602001908152602001600020600b0160009054906101000a900460ff16600a81111561148a57fe5b14151561149657600080fd5b8360036000878152602001908152602001600020600d0160006101000a81548173ffffffffffffffffffffffffffffffffffffffff021916908373ffffffffffffffffffffffffffffffffffffffff160217905550600560036000878152602001908152602001600020600b0160006101000a81548160ff0219169083600a81111561151e57fe5b02179055508260036000878152602001908152602001600020600e01819055508160036000878152602001908152602001600020600f019080519060200190611568929190612766565b507f6621ba7e7cc5083aa121e97a595cd8093ea3abb0776394b9e6931c4fd4a1910a856040518082815260200191505060405180910390a15050505050565b600080600080606080606080600360008a8152602001908152602001600020600001549750600360008a8152602001908152602001600020600101549650600360008a815260200190815260200160002060020160009054906101000a900473ffffffffffffffffffffffffffffffffffffffff169550600360008a815260200190815260200160002060030160009054906101000a900473ffffffffffffffffffffffffffffffffffffffff169450600360008a81526020019081526020016000206004018054600181600116156101000203166002900480601f0160208091040260200160405190810160405280929190818152602001828054600181600116156101000203166002900480156117015780601f106116d657610100808354040283529160200191611701565b820191906000526020600020905b8154815290600101906020018083116116e457829003601f168201915b50505050509350600360008a81526020019081526020016000206005018054600181600116156101000203166002900480601f0160208091040260200160405190810160405280929190818152602001828054600181600116156101000203166002900480156117b25780601f10611787576101008083540402835291602001916117b2565b820191906000526020600020905b81548152906001019060200180831161179557829003601f168201915b50505050509250600360008a81526020019081526020016000206006018054600181600116156101000203166002900480601f0160208091040260200160405190810160405280929190818152602001828054600181600116156101000203166002900480156118635780601f1061183857610100808354040283529160200191611863565b820191906000526020600020905b81548152906001019060200180831161184657829003601f168201915b50505050509150600360008a81526020019081526020016000206007018054600181600116156101000203166002900480601f0160208091040260200160405190810160405280929190818152602001828054600181600116156101000203166002900480156119145780601f106118e957610100808354040283529160200191611914565b820191906000526020600020905b8154815290600101906020018083116118f757829003601f168201915b50505050509050878787878787878797509750975097509750975097509750919395975091939597565b806007600a81111561194c57fe5b60036000838152602001908152602001600020600b0160009054906101000a900460ff16600a81111561197b57fe5b14151561198757600080fd5b600860036000848152602001908152602001600020600b0160006101000a81548160ff0219169083600a8111156119ba57fe5b02179055507ff3a29071e6650a0fa27a265b9f962ccb503771f02ee5702fffacf14c6e228816826040518082815260200191505060405180910390a15050565b856000806101000a81548173ffffffffffffffffffffffffffffffffffffffff021916908373ffffffffffffffffffffffffffffffffffffffff16021790555060025460036000898152602001908152602001600020600001819055506001546003600089815260200190815260200160002060010181905550856003600089815260200190815260200160002060020160006101000a81548173ffffffffffffffffffffffffffffffffffffffff021916908373ffffffffffffffffffffffffffffffffffffffff160217905550856003600089815260200190815260200160002060030160006101000a81548173ffffffffffffffffffffffffffffffffffffffff021916908373ffffffffffffffffffffffffffffffffffffffff16021790555084600360008981526020019081526020016000206004019080519060200190611b48929190612766565b5083600360008981526020019081526020016000206005019080519060200190611b73929190612766565b5082600360008981526020019081526020016000206006019080519060200190611b9e929190612766565b5081600360008981526020019081526020016000206007019080519060200190611bc9929190612766565b506002548701600360008981526020019081526020016000206008018190555080600360008981526020019081526020016000206009019080519060200190611c13929190612766565b50600060036000898152602001908152602001600020600b0160006101000a81548160ff0219169083600a811115611c4757fe5b02179055506001600254016002819055507fd29d8a68ca7c8c74be5579719d445aabfe230ed6e6a83aff475a663500eb7609876040518082815260200191505060405180910390a150505050505050565b806003600a811115611ca657fe5b60036000838152602001908152602001600020600b0160009054906101000a900460ff16600a811115611cd557fe5b141515611ce157600080fd5b813373ffffffffffffffffffffffffffffffffffffffff166003600083815260200190815260200160002060110160009054906101000a900473ffffffffffffffffffffffffffffffffffffffff1673ffffffffffffffffffffffffffffffffffffffff16141515611d5257600080fd5b336000806101000a81548173ffffffffffffffffffffffffffffffffffffffff021916908373ffffffffffffffffffffffffffffffffffffffff16021790555060006003600085815260200190815260200160002060110160006101000a81548173ffffffffffffffffffffffffffffffffffffffff021916908373ffffffffffffffffffffffffffffffffffffffff160217905550336003600085815260200190815260200160002060020160006101000a81548173ffffffffffffffffffffffffffffffffffffffff021916908373ffffffffffffffffffffffffffffffffffffffff1602179055503360036000858152602001908152602001600020600c0160006101000a81548173ffffffffffffffffffffffffffffffffffffffff021916908373ffffffffffffffffffffffffffffffffffffffff160217905550600460036000858152602001908152602001600020600b0160006101000a81548160ff0219169083600a811115611ec557fe5b02179055507f85936594ac64cd8813da91f5875283d01c97334a11ca671aac0a4d3eaf0fda94836040518082815260200191505060405180910390a1505050565b600080600080600060608060036000898152602001908152602001600020600001549650600360008981526020019081526020016000206001015495506003600089815260200190815260200160002060080154945060036000898152602001908152602001600020600d0160009054906101000a900473ffffffffffffffffffffffffffffffffffffffff16935060036000898152602001908152602001600020600e0154925060036000898152602001908152602001600020600f018054600181600116156101000203166002900480601f0160208091040260200160405190810160405280929190818152602001828054600181600116156101000203166002900480156120585780601f1061202d57610100808354040283529160200191612058565b820191906000526020600020905b81548152906001019060200180831161203b57829003601f168201915b50505050509150600360008981526020019081526020016000206010018054600181600116156101000203166002900480601f0160208091040260200160405190810160405280929190818152602001828054600181600116156101000203166002900480156121095780601f106120de57610100808354040283529160200191612109565b820191906000526020600020905b8154815290600101906020018083116120ec57829003601f168201915b50505050509050868686868686869650965096509650965096509650919395979092949650565b816002600a81111561213e57fe5b60036000838152602001908152602001600020600b0160009054906101000a900460ff16600a81111561216d57fe5b14806121b257506009600a81111561218157fe5b60036000838152602001908152602001600020600b0160009054906101000a900460ff16600a8111156121b057fe5b145b15156121bd57600080fd5b6000809054906101000a900473ffffffffffffffffffffffffffffffffffffffff1673ffffffffffffffffffffffffffffffffffffffff163373ffffffffffffffffffffffffffffffffffffffff1614151561221857600080fd5b6003806000858152602001908152602001600020600b0160006101000a81548160ff0219169083600a81111561224a57fe5b0217905550816003600085815260200190815260200160002060110160006101000a81548173ffffffffffffffffffffffffffffffffffffffff021916908373ffffffffffffffffffffffffffffffffffffffff1602179055507f3a0b536b05e501b9300785414f4a59db7853e633dddd6d95660f2606868a4503836040518082815260200191505060405180910390a1505050565b806001600a8111156122ee57fe5b60036000838152602001908152602001600020600b0160009054906101000a900460ff16600a81111561231d57fe5b14151561232957600080fd5b60036000838152602001908152602001600020600a015480341015151561234f57600080fd5b826000803360036000888152602001908152602001600020600c0160006101000a81548173ffffffffffffffffffffffffffffffffffffffff021916908373ffffffffffffffffffffffffffffffffffffffff160217905550600260036000888152602001908152602001600020600b0160006101000a81548160ff0219169083600a8111156123db57fe5b021790555060036000878152602001908152602001600020600b0160019054906101000a900473ffffffffffffffffffffffffffffffffffffffff1673ffffffffffffffffffffffffffffffffffffffff166108fc60036000898152602001908152602001600020600a01549081150290604051600060405180830381858888f19350505050158015612472573d6000803e3d6000fd5b507f92f64ca637d023f354075a4be751b169c1a8a9ccb6d33cdd0cb3520543995727866040518082815260200191505060405180910390a160036000848152602001908152602001600020600a01549150813403905060036000848152602001908152602001600020600c0160009054906101000a900473ffffffffffffffffffffffffffffffffffffffff1673ffffffffffffffffffffffffffffffffffffffff166108fc829081150290604051600060405180830381858888f19350505050158015612544573d6000803e3d6000fd5b50505050505050565b806006600a81111561255b57fe5b60036000838152602001908152602001600020600b0160009054906101000a900460ff16600a81111561258a57fe5b14151561259657600080fd5b813373ffffffffffffffffffffffffffffffffffffffff166003600083815260200190815260200160002060110160009054906101000a900473ffffffffffffffffffffffffffffffffffffffff1673ffffffffffffffffffffffffffffffffffffffff1614151561260757600080fd5b336000806101000a81548173ffffffffffffffffffffffffffffffffffffffff021916908373ffffffffffffffffffffffffffffffffffffffff160217905550336003600085815260200190815260200160002060020160006101000a81548173ffffffffffffffffffffffffffffffffffffffff021916908373ffffffffffffffffffffffffffffffffffffffff160217905550600760036000858152602001908152602001600020600b0160006101000a81548160ff0219169083600a8111156126cf57fe5b021790555060006003600085815260200190815260200160002060110160006101000a81548173ffffffffffffffffffffffffffffffffffffffff021916908373ffffffffffffffffffffffffffffffffffffffff1602179055507f4b465475ce54d33f24191a37e5b807e5f0346ded369bbb37d60fc7f664c7bc19836040518082815260200191505060405180910390a1505050565b828054600181600116156101000203166002900490600052602060002090601f016020900481019282601f106127a757805160ff19168380011785556127d5565b828001600101855582156127d5579182015b828111156127d45782518255916020019190600101906127b9565b5b5090506127e291906127e6565b5090565b61280891905b808211156128045760008160009055506001016127ec565b5090565b905600a165627a7a72305820bb2e1f7f85fa0890b47d044579f61abffb606c1c90ec2db8a0dec43be44da9a90029",
  "source": "pragma solidity ^0.4.24;\n\n//import \"../equipmentaccesscontrol/MfgRole.sol\";\n\n// Define a contract 'Supplychain'\ncontract SupplyChain {\n\n//  Manufacturer will always have a seller role.\n//  Consumer will always have a seller role.\n//  all shipping will occur between a seller and a consumer.  MFG will not ship.  Seller will not receive.\n//  All service activities will occur between consumer and service provide.  MFG can also be a service provider.\n\n  // Define 'owner'\n  address owner;\n\n  // Define a variable called 'upc' for Universal Product Code (UPC)\n  uint  upc;\n\n  // Define a variable called 'sku' for Stock Keeping Unit (SKU)\n  uint  sku;\n  \n  // Define a public mapping 'items' that maps the UPC to an Item.\n  mapping (uint => Item) items;\n\n  // Define a public mapping 'itemsHistory' that maps the UPC to an array of TxHash, \n  // that track its journey through the supply chain -- to be sent from DApp.\n  mapping (uint => string[]) itemsHistory;\n  \n  // Define enum 'State' with the following values:\n  enum State \n  { \n    Manufactured,       // 0\n    ForSale,            // 1\n    Sold,               // 2\n    ShippedToConsumer,  // 3\n    InOperation,\t\t// 4\n    HasOpenCall,        // 5\n    ShippedToSrv,  \t\t// 6\n    ReceivedBySrv,      // 7\n    UnderRepair,        // 8\n    Repaired,           // 9\n    EOL                 // 10\n  }\n\n  State constant defaultState = State.Manufactured;\n\n  // Define a struct 'Item' with the following fields:\n  struct Item {\n    uint    sku;  // Stock Keeping Unit (SKU)\n    uint    upc; // Universal Product Code (UPC), generated by the Farmer, goes on the package, can be verified by the Consumer\n    address ownerID;  // Metamask-Ethereum address of the current owner as the product moves through the stages\n    address originMfgID; // Metamask-Ethereum address of the Mfg\n    string  originMfgName; // Mfg Name\n    string  originMfgInformation;  // Mfg Information\n    string  originMfgLatitude; // Mfg Latitude\n    string  originMfgLongitude;  // Mfg Longitude\n    uint    productID;  // Product ID potentially a combination of upc + sku\n    string  productNotes; // Product Notes\n    uint    productPrice; // Product Price\n    State   itemState;  // Product State as represented in the enum above\n    address sellerID; // Metamask-Ethereum address of the Seller\n    address consumerID; // Metamask-Ethereum address of the Consumer\n    address srvID;  // Metamask-Ethereum address of the Service Provider\n    uint srvUsage;  // usage in hours for the items\n    string probNotes; // Notes on problem experienced\n    string srvNotes; // Notes on service provided\n    address shipToID;\t// Metamast-Ethereum address of the ship-to party\n  }\n\n  // Define events with the same state values and accept 'upc' as input argument\n  event Manufactured(uint upc);\n  event ForSale(uint upc);\n  event Sold(uint upc);\n  event ShippedToConsumer(uint upc);\n  event InOperation(uint upc);\n  event CallOpened(uint upc);\n  event ShippedToSrv(uint upc);\n  event ReceivedBySrv(uint upc);\n  event UnderRepair(uint upc);\n  event Repaired(uint upc);\n  event EOL(uint upc);\n\n  // Define a modifer that checks to see if msg.sender == owner of the contract\n  modifier onlyOwner() {\n    require(msg.sender == owner);\n    _;\n  }\n\n  // Define a modifer that verifies the Caller\n  modifier verifyCaller (address _address) {\n    require(msg.sender == _address);\n    _;\n  }\n\n  // Define a modifier that checks if the paid amount is sufficient to cover the price\n  modifier paidEnough(uint _price) { \n\trequire(msg.value >= _price); \n    _;\n  }\n  \n  // Define a modifier that checks the price and refunds the remaining balance\n  modifier checkValue(uint _upc) {\n    _;\n    uint _price = items[_upc].productPrice;\n    uint amountToReturn = msg.value - _price;\n\titems[_upc].consumerID.transfer(amountToReturn);\n  }\n\n  // Define a modifier that checks if an item.state of a upc is manufactured\n  modifier manufactured(uint _upc) {\n    require(items[_upc].itemState == State.Manufactured);\n    _;\n  }\n\n  // Define a modifier that checks if an item.state of a upc is ShippedToConsumer\n  modifier shippedToConsumer(uint _upc) {\n   \trequire(items[_upc].itemState == State.ShippedToConsumer);\n    _;\n  }\n  \n  // Define a modifier that checks if if the shipTo Address = recBy Address\n  modifier recEQship(uint _upc) {\n   \trequire(items[_upc].shipToID == msg.sender);\n    _;\n  }\n\n  // Define a modifier that checks if an item.state of a upc is ForSale\n  modifier forSale(uint _upc) {\n    require(items[_upc].itemState == State.ForSale);\n    _;\n  }\n\n  // Define a modifier that checks if an item.state of a upc is Sold\n  modifier sold(uint _upc) {\n    require((items[_upc].itemState == State.Sold) || (items[_upc].itemState == State.Repaired));\n    _;\n  }\n  \n  // Define a modifier that checks if an item.state of a upc is InOperation\n  modifier inOperation(uint _upc) {\n    require(items[_upc].itemState == State.InOperation);    \n    _;\n  }\n\n  // Define a modifier that checks if an item.state of a upc is HasOpenCall\n  modifier HasOpenCall(uint _upc) {\n    require(items[_upc].itemState == State.HasOpenCall);\n    _;\n  }\n\n  // Define a modifier that checks if an item.state of a upc is ShippedToSrv\n  modifier shippedToSrv(uint _upc) {\n   \trequire(items[_upc].itemState == State.ShippedToSrv);\n    _;\n  }\n  \n  // Define a modifier that checks if an item.state of a upc is ReceivedBySrv\n  modifier receivedBySrv(uint _upc) {\n   \trequire(items[_upc].itemState == State.ReceivedBySrv);\n    _;\n  }\n\n  // Define a modifier that checks if an item.state of a upc is UnderRepair\n  modifier underRepair(uint _upc) {\n    require(items[_upc].itemState == State.UnderRepair);\n    _;\n  }\n\n  // Define a modifier that checks if an item.state of a upc is UnderRepair\n  modifier repaired(uint _upc) {\n    require(items[_upc].itemState == State.Repaired);\n    _;\n  }\n\n  // Define a modifier that checks if an item.state of a upc is EOL\n  modifier notEOL(uint _upc) {\n    require(items[_upc].itemState != State.EOL);\n    _;\n  }\n\n  // In the constructor set 'owner' to the address that instantiated the contract\n  // and set 'sku' to 1\n  // and set 'upc' to 1\n  constructor() public payable {\n    owner = msg.sender;\n    sku = 1;\n    upc = 1;\n  }\n\n  // Define a function 'kill' if required\n  function kill() public {\n    if (msg.sender == owner) {\n      selfdestruct(owner);\n    }\n  }\n\n\n  // Define a function 'manufactureItem' that allows a manufacturer to mark an item 'Created'\n  function manufactureItem(uint _upc, address _originMfgID, string _originMfgName, string _originMfgInformation, string  _originMfgLatitude, string  _originMfgLongitude, string _productNotes) public \n  {\n    // Add the new item as part of Manufacturing\n    owner = _originMfgID;\n    items[_upc].sku = sku; \t\t\t\t\t\t\t\t\t\t// product SKU\n    items[_upc].upc = upc; \t\t\t\t\t\t\t\t\t\t// product UPC\n    items[_upc].ownerID = _originMfgID;\t\t\t\t\t\t\t// Metamask-Ethereum address of the current owner as the product moves through the stages\n    items[_upc].originMfgID = _originMfgID;                     // Metamask-Ethereum address of the Mfg\n    items[_upc].originMfgName = _originMfgName;                 // Mfg Name\n    items[_upc].originMfgInformation = _originMfgInformation;   // Mfg Information\n    items[_upc].originMfgLatitude = _originMfgLatitude;         // Mfg Latitude\n    items[_upc].originMfgLongitude = _originMfgLongitude;       // Mfg Longitude\n    items[_upc].productID = _upc + sku;                         // Product ID potentially a combination of upc + sku\n    items[_upc].productNotes = _productNotes;\t\t\t\t\t// Notes/description of the product\n    items[_upc].itemState = State.Manufactured;                 // Product State as represented in the enum above\n    \n    // Increment sku\n    sku = sku + 1;\n\n    // Emit the appropriate event\n    emit Manufactured(_upc);\n  }\n\n  // Define a function 'sellItem' that allows a seller (Note that MFG will be the seller) to mark an item 'ForSale'\n  function sellItem(uint _upc, uint _price) public \n  // Call modifier to check if upc has passed previous supply chain stage\n   manufactured(_upc)\n  \n  // Call modifier to verify caller of this function\n\t verifyCaller(items[_upc].originMfgID)\n  {\n    // Update the appropriate fields\n\t  items[_upc].productPrice = _price;                        // Product Price    \n    items[_upc].sellerID = msg.sender;                        // Product Price    \n    items[_upc].itemState = State.ForSale;                 // Product State as represented in the enum above\n\n    // Emit the appropriate event\n   \temit ForSale(_upc);\n  }\n\n  // Define a function 'buyItem' that allows the \"seller\" to mark an item 'Sold'\n  // Use the above defined modifiers to check if the item is available for sale, if the buyer has paid enough, \n  // and any excess ether sent is refunded back to the buyer\n  function buyItem(uint _upc) public payable \n    // Call modifier to check if upc has passed previous supply chain stage\n    forSale(_upc)\n    // Call modifer to check if buyer has paid enough\n    paidEnough(items[_upc].productPrice)\n    // Call modifer to send any excess ether back to buyer\n    checkValue(_upc)\n    {\n    // Update the appropriate fields - consumerID, itemState\n    items[_upc].consumerID = msg.sender;\t\t\t\t        // Consumer ID\n    items[_upc].itemState = State.Sold;\t\t\t\t\t        // Product State as represented in the enum above\n    \n    // Transfer money to seller\n    items[_upc].sellerID.transfer(items[_upc].productPrice);\n\n    // emit the appropriate event\n    emit Sold(_upc);\n  }\n\n  // Define a function 'shipItem' that allows the current owner to mark an item 'ShippedToConsumer'\n  // Use the above modifers to check if the item is sold\n  function shipItem(uint _upc, address _shipTo) public \n    // Call modifier to check if upc has passed previous supply chain stage\n    sold(_upc)\n    // Call modifier to verify caller of this function\n    onlyOwner()\n  {\n    // Update the appropriate fields\n    items[_upc].itemState = State.ShippedToConsumer;         // Product State as represented in the enum above\n    items[_upc].shipToID = _shipTo;\t\t\t\t\t\t\t\t// Set address for ship-to\n\n    // Emit the appropriate event\n     emit ShippedToConsumer(_upc);\n  }\n\n  // Define a function 'receiveItem' that allows the receiver to mark an item 'InOperation'\n  // Use the above modifiers to check if the item is shipped\n  function receiveItem(uint _upc) public \n    // Call modifier to check if upc has passed previous supply chain stage\n    shippedToConsumer(_upc)\n    recEQship(_upc)\n    // Access Control List enforced by calling Smart Contract / DApp\n  {\n    // Update the appropriate fields - ownerID, sellerID, itemState\n    owner = msg.sender;\n    items[_upc].shipToID = 0;    \t\t\t\t\t\t\t// Clear the ship-to address\n    items[_upc].ownerID = msg.sender;\t\t\t\t\t\t// Set the UPC Owner\n    items[_upc].consumerID = msg.sender;\t\t\t        // Consumer ID\n    items[_upc].itemState = State.InOperation;\t\t        // Product State as represented in the enum above\n    \n    // Emit the appropriate event\n    emit InOperation(_upc);\n  }\n\n  // Define a function 'requestSrv' that allows the consumer to mark an item 'HasOpenCall'\n  // Use the above modifiers to check if the item is inOperation\n  function requestSrv(uint _upc, address _srvID, uint256 _srvUsage, string _probNotes) public \n    // Call modifier to check if upc has passed previous supply chain stage\n    onlyOwner()\n    inOperation(_upc)\n    // Access Control List enforced by calling Smart Contract / DApp\n    {\n    // Update the appropriate fields - ownerID, consumerID, itemState\n    items[_upc].srvID = _srvID;\t\t\t\t\t\t\t\t// Set the service provider\n    items[_upc].itemState = State.HasOpenCall;\t\t        // Product State as represented in the enum above\n    items[_upc].srvUsage = _srvUsage;\t\t\t\t\t\t//  Send current usage (in hours)\n    items[_upc].probNotes = _probNotes;\t\t\t\t\t\t//  Enter in problem description\n    \n    // Emit the appropriate event\n    emit CallOpened(_upc);\n  }\n\n  // Define a function 'shipItemSrv' that allows the current owner to mark an item 'ShippedToSrv'\n  // Use the above modifers to check if the item is sold\n  function shipItemSrv(uint _upc) public \n    // Call modifier to check if upc has passed previous supply chain stage\n    HasOpenCall(_upc)\n    // Call modifier to verify caller of this function\n    onlyOwner()\n  {\n    // Update the appropriate fields\n    items[_upc].itemState = State.ShippedToSrv;\t\t\t        // Product State as represented in the enum above\n    items[_upc].shipToID = items[_upc].srvID;\t\t\t\t\t// Set address for ship-to\n\n    // Emit the appropriate event\n        emit ShippedToSrv(_upc);\n  }\n\n  // Define a function 'receiveItemSrv' that allows the receiver to mark an item 'ReceivedBySrv'\n  // Use the above modifiers to check if the item is shipped\n  function receiveItemSrv(uint _upc) public \n    // Call modifier to check if upc has passed previous supply chain stage\n    shippedToSrv(_upc)\n    recEQship(_upc)\n    // Access Control List enforced by calling Smart Contract / DApp\n  {\n    // Update the appropriate fields - sellerID, itemState\n    owner = msg.sender;\n    items[_upc].ownerID = msg.sender;\t\t\t        // Product State as represented in the enum above\n    items[_upc].itemState = State.ReceivedBySrv;        // Product State as represented in the enum above\n\titems[_upc].shipToID = 0;    \t\t\t\t\t\t// Clear the ship-to address\n    \n    // Emit the appropriate event\n    emit ReceivedBySrv(_upc);\n  }\n\n  // Define a function 'repairItem' that allows the receiver to mark an item 'UnderRepair'\n  // Use the above modifiers to check if the item is received\n  function repairItem(uint _upc) public \n    // Call modifier to check if upc has passed previous supply chain stage\n    receivedBySrv(_upc)\n    // Access Control List enforced by calling Smart Contract / DApp\n  {\n    // Update the appropriate fields\n    items[_upc].itemState = State.UnderRepair;        // Product State as represented in the enum above\n    \n    // Emit the appropriate event\n    emit UnderRepair(_upc);\n  }\n\n  // Define a function 'repairComplete' that allows the receiver to mark an item 'Repaired' or 'EOL'\n  // Use the above modifiers to check if the item is under repair\n  function repairComplete(uint _upc, uint _EOL, string _srvNotes) public \n    // Call modifier to check if upc has passed previous supply chain stage\n    underRepair(_upc)\n    // Access Control List enforced by calling Smart Contract / DApp\n  {\n    // Update the appropriate fields\n    items[_upc].srvNotes = _srvNotes;\t\t\t\t\t//  enter in all repair data\n    if (_EOL == 0)\n    \titems[_upc].itemState = State.Repaired;        // Product State as represented in the enum above\n   \tif (_EOL == 1)\n    \titems[_upc].itemState = State.EOL;\t\t       // Product State as represented in the enum above\n    \n    // Emit the appropriate event\n    if (_EOL == 0)\n    \temit Repaired(_upc);\n   \tif (_EOL == 1)\n    \temit EOL(_upc);\n  }\n\n  // Define a function 'shipFromSrv' that allows the current owner to mark an item 'ShippedToConsumer'\n  // Use the above modifers to check if the item is sold\n  function shipFromSrv(uint _upc, address _shipTo) public \n    // Call modifier to check if upc has passed previous supply chain stage\n    repaired(_upc)\n    // Call modifier to verify caller of this function\n\tverifyCaller(items[_upc].srvID)\n  {\n    // Update the appropriate fields\n    items[_upc].itemState = State.ShippedToConsumer;         // Product State as represented in the enum above\n    items[_upc].shipToID = _shipTo;\t\t\t\t\t\t\t\t// Set address for ship-to\n\n    // Emit the appropriate event\n        emit ShippedToConsumer(_upc);\n  }\n\n  // Define a function 'fetchItemBufferOne' that fetches the data\n  function fetchItemBufferOne(uint _upc) public view returns \n\t(\n\t\tuint    itemSKU,\n\t\tuint    itemUPC,\n\t\taddress ownerID,\n\t\taddress originMfgID,\n\t\tstring  originMfgName,\n\t\tstring  originMfgInformation,\n\t\tstring  originMfgLatitude,\n\t\tstring  originMfgLongitude\n\t) \n  {\n\t// Assign values to the parameters\n\titemSKU = items[_upc].sku;\n\titemUPC = items[_upc].upc;\n\townerID = items[_upc].ownerID;\n\toriginMfgID = items[_upc].originMfgID;\n\toriginMfgName = items[_upc].originMfgName;\n\toriginMfgInformation = items[_upc].originMfgInformation;\n\toriginMfgLatitude = items[_upc].originMfgLatitude;\n\toriginMfgLongitude = items[_upc].originMfgLongitude;\n\n\treturn \n\t(\n\t\titemSKU,\n\t\titemUPC,\n\t\townerID,\n\t\toriginMfgID,\n\t\toriginMfgName,\n\t\toriginMfgInformation,\n\t\toriginMfgLatitude,\n\t\toriginMfgLongitude\n\t);\n  }\n\n  // Define a function 'fetchItemBufferTwo' that fetches the data\n  function fetchItemBufferTwo(uint _upc) public view returns \n  (\n  uint    itemSKU,\n  uint    itemUPC,\n  uint    productID,\n  string  productNotes,\n  uint    productPrice,\n  State   itemState,\n  address originMfgID,\n  address sellerID,\n  address consumerID,\n  address shipToID\n  ) \n  {\n    // Assign values to the parameters\n  itemSKU = items[_upc].sku;\n  itemUPC = items[_upc].upc;\n  productID = items[_upc].productID;\n  productNotes = items[_upc].productNotes;\n  productPrice = items[_upc].productPrice;\n  itemState = items[_upc].itemState;\n  originMfgID = items[_upc].originMfgID;\n  sellerID = items[_upc].sellerID;\n  consumerID = items[_upc].consumerID;\n  shipToID = items[_upc].shipToID;\n\n  return \n  (\n  itemSKU,\n  itemUPC,\n  productID,\n  productNotes,\n  productPrice,\n  itemState,\n  originMfgID,\n  sellerID,\n  consumerID,\n  shipToID\n  );\n  }\n\n  // Define a function 'fetchItemBufferThree' that fetches the data\n  function fetchItemBufferThree(uint _upc) public view returns \n  (\n  uint    itemSKU,\n  uint    itemUPC,\n  uint    productID,\n  address srvID,\n  uint srvUsage,\n  string probNotes,\n  string srvNotes\n  ) \n  {\n    // Assign values to the parameters\n  itemSKU = items[_upc].sku;\n  itemUPC = items[_upc].upc;\n  productID = items[_upc].productID;\n  srvID = items[_upc].srvID;\n  srvUsage = items[_upc].srvUsage;\n  probNotes = items[_upc].probNotes;\n  srvNotes = items[_upc].srvNotes;\n    \n  return \n  (\n  itemSKU,\n  itemUPC,\n  productID,\n  srvID,\n  srvUsage,\n  probNotes,\n  srvNotes\n  );\n  }    \n}\n",
  "sourcePath": "C:\\Users\\Mike\\Documents\\GitHub\\nd1309-work-code\\Project-6b-MDP\\project-6\\contracts\\equipmentbase\\SupplyChain.sol",
  "compiler": {
    "name": "solc",
    "version": "0.4.24+commit.e67f0147.Emscripten.clang"
  },
  "schemaVersion": "2.0.1",
  "updatedAt": "2019-05-15T11:47:35.191Z"
}